{
  "_format": "hh-sol-artifact-1",
  "contractName": "Oracle",
  "sourceName": "contracts/Oracle.sol",
  "abi": [
    {
      "inputs": [],
      "stateMutability": "nonpayable",
      "type": "constructor"
    },
    {
      "inputs": [],
      "name": "AccessControlBadConfirmation",
      "type": "error"
    },
    {
      "inputs": [
        {
          "internalType": "address",
          "name": "account",
          "type": "address"
        },
        {
          "internalType": "bytes32",
          "name": "neededRole",
          "type": "bytes32"
        }
      ],
      "name": "AccessControlUnauthorizedAccount",
      "type": "error"
    },
    {
      "anonymous": false,
      "inputs": [
        {
          "indexed": true,
          "internalType": "uint256",
          "name": "requestId",
          "type": "uint256"
        },
        {
          "indexed": false,
          "internalType": "string",
          "name": "query",
          "type": "string"
        },
        {
          "indexed": true,
          "internalType": "address",
          "name": "requester",
          "type": "address"
        }
      ],
      "name": "OracleRequest",
      "type": "event"
    },
    {
      "anonymous": false,
      "inputs": [
        {
          "indexed": true,
          "internalType": "uint256",
          "name": "requestId",
          "type": "uint256"
        },
        {
          "indexed": false,
          "internalType": "bytes",
          "name": "result",
          "type": "bytes"
        },
        {
          "indexed": true,
          "internalType": "address",
          "name": "agent",
          "type": "address"
        }
      ],
      "name": "OracleResponse",
      "type": "event"
    },
    {
      "anonymous": false,
      "inputs": [
        {
          "indexed": true,
          "internalType": "bytes32",
          "name": "role",
          "type": "bytes32"
        },
        {
          "indexed": true,
          "internalType": "bytes32",
          "name": "previousAdminRole",
          "type": "bytes32"
        },
        {
          "indexed": true,
          "internalType": "bytes32",
          "name": "newAdminRole",
          "type": "bytes32"
        }
      ],
      "name": "RoleAdminChanged",
      "type": "event"
    },
    {
      "anonymous": false,
      "inputs": [
        {
          "indexed": true,
          "internalType": "bytes32",
          "name": "role",
          "type": "bytes32"
        },
        {
          "indexed": true,
          "internalType": "address",
          "name": "account",
          "type": "address"
        },
        {
          "indexed": true,
          "internalType": "address",
          "name": "sender",
          "type": "address"
        }
      ],
      "name": "RoleGranted",
      "type": "event"
    },
    {
      "anonymous": false,
      "inputs": [
        {
          "indexed": true,
          "internalType": "bytes32",
          "name": "role",
          "type": "bytes32"
        },
        {
          "indexed": true,
          "internalType": "address",
          "name": "account",
          "type": "address"
        },
        {
          "indexed": true,
          "internalType": "address",
          "name": "sender",
          "type": "address"
        }
      ],
      "name": "RoleRevoked",
      "type": "event"
    },
    {
      "inputs": [],
      "name": "AGENT_ROLE",
      "outputs": [
        {
          "internalType": "bytes32",
          "name": "",
          "type": "bytes32"
        }
      ],
      "stateMutability": "view",
      "type": "function"
    },
    {
      "inputs": [],
      "name": "DEFAULT_ADMIN_ROLE",
      "outputs": [
        {
          "internalType": "bytes32",
          "name": "",
          "type": "bytes32"
        }
      ],
      "stateMutability": "view",
      "type": "function"
    },
    {
      "inputs": [
        {
          "internalType": "address",
          "name": "agent",
          "type": "address"
        }
      ],
      "name": "addAgent",
      "outputs": [],
      "stateMutability": "nonpayable",
      "type": "function"
    },
    {
      "inputs": [
        {
          "internalType": "uint256",
          "name": "requestId",
          "type": "uint256"
        },
        {
          "internalType": "bytes",
          "name": "result",
          "type": "bytes"
        },
        {
          "internalType": "bytes",
          "name": "",
          "type": "bytes"
        }
      ],
      "name": "fulfillRequest",
      "outputs": [],
      "stateMutability": "nonpayable",
      "type": "function"
    },
    {
      "inputs": [
        {
          "internalType": "uint256",
          "name": "requestId",
          "type": "uint256"
        }
      ],
      "name": "getResult",
      "outputs": [
        {
          "internalType": "bytes",
          "name": "",
          "type": "bytes"
        }
      ],
      "stateMutability": "view",
      "type": "function"
    },
    {
      "inputs": [
        {
          "internalType": "bytes32",
          "name": "role",
          "type": "bytes32"
        }
      ],
      "name": "getRoleAdmin",
      "outputs": [
        {
          "internalType": "bytes32",
          "name": "",
          "type": "bytes32"
        }
      ],
      "stateMutability": "view",
      "type": "function"
    },
    {
      "inputs": [
        {
          "internalType": "bytes32",
          "name": "role",
          "type": "bytes32"
        },
        {
          "internalType": "address",
          "name": "account",
          "type": "address"
        }
      ],
      "name": "grantRole",
      "outputs": [],
      "stateMutability": "nonpayable",
      "type": "function"
    },
    {
      "inputs": [
        {
          "internalType": "bytes32",
          "name": "role",
          "type": "bytes32"
        },
        {
          "internalType": "address",
          "name": "account",
          "type": "address"
        }
      ],
      "name": "hasRole",
      "outputs": [
        {
          "internalType": "bool",
          "name": "",
          "type": "bool"
        }
      ],
      "stateMutability": "view",
      "type": "function"
    },
    {
      "inputs": [
        {
          "internalType": "address",
          "name": "agent",
          "type": "address"
        }
      ],
      "name": "removeAgent",
      "outputs": [],
      "stateMutability": "nonpayable",
      "type": "function"
    },
    {
      "inputs": [
        {
          "internalType": "bytes32",
          "name": "role",
          "type": "bytes32"
        },
        {
          "internalType": "address",
          "name": "callerConfirmation",
          "type": "address"
        }
      ],
      "name": "renounceRole",
      "outputs": [],
      "stateMutability": "nonpayable",
      "type": "function"
    },
    {
      "inputs": [],
      "name": "requestCounter",
      "outputs": [
        {
          "internalType": "uint256",
          "name": "",
          "type": "uint256"
        }
      ],
      "stateMutability": "view",
      "type": "function"
    },
    {
      "inputs": [
        {
          "internalType": "string",
          "name": "query",
          "type": "string"
        }
      ],
      "name": "requestData",
      "outputs": [
        {
          "internalType": "uint256",
          "name": "",
          "type": "uint256"
        }
      ],
      "stateMutability": "nonpayable",
      "type": "function"
    },
    {
      "inputs": [
        {
          "internalType": "uint256",
          "name": "",
          "type": "uint256"
        }
      ],
      "name": "requests",
      "outputs": [
        {
          "internalType": "address",
          "name": "requester",
          "type": "address"
        },
        {
          "internalType": "string",
          "name": "query",
          "type": "string"
        },
        {
          "internalType": "bool",
          "name": "fulfilled",
          "type": "bool"
        },
        {
          "internalType": "bytes",
          "name": "result",
          "type": "bytes"
        },
        {
          "internalType": "uint256",
          "name": "timestamp",
          "type": "uint256"
        }
      ],
      "stateMutability": "view",
      "type": "function"
    },
    {
      "inputs": [
        {
          "internalType": "bytes32",
          "name": "role",
          "type": "bytes32"
        },
        {
          "internalType": "address",
          "name": "account",
          "type": "address"
        }
      ],
      "name": "revokeRole",
      "outputs": [],
      "stateMutability": "nonpayable",
      "type": "function"
    },
    {
      "inputs": [
        {
          "internalType": "bytes4",
          "name": "interfaceId",
          "type": "bytes4"
        }
      ],
      "name": "supportsInterface",
      "outputs": [
        {
          "internalType": "bool",
          "name": "",
          "type": "bool"
        }
      ],
      "stateMutability": "view",
      "type": "function"
    }
  ],
  "bytecode": "0x608060405234801561001057600080fd5b5061001c600033610022565b506100ce565b6000828152602081815260408083206001600160a01b038516845290915281205460ff166100c4576000838152602081815260408083206001600160a01b03861684529091529020805460ff1916600117905561007c3390565b6001600160a01b0316826001600160a01b0316847f2f8788117e7eff1d82e926ec794901d17c78024a50270940304540a733656f0d60405160405180910390a45060016100c8565b5060005b92915050565b610da4806100dd6000396000f3fe608060405234801561001057600080fd5b50600436106100f55760003560e01c806384e7984211610097578063995e433911610066578063995e433914610209578063a217fddf14610229578063acfcc0b714610231578063d547741f1461024457600080fd5b806384e79842146101c757806391d14854146101da578063973a814e146101ed57806397a6278e146101f657600080fd5b8063248a9ca3116100d3578063248a9ca3146101585780632f2ff15d1461017b57806336568abe1461019057806381d12c58146101a357600080fd5b806301ffc9a7146100fa5780632215ec2c1461012257806322459e1814610143575b600080fd5b61010d61010836600461091e565b610257565b60405190151581526020015b60405180910390f35b6101356101303660046109db565b61028e565b604051908152602001610119565b610135600080516020610d4f83398151915281565b610135610166366004610a2c565b60009081526020819052604090206001015490565b61018e610189366004610a61565b610399565b005b61018e61019e366004610a61565b6103c4565b6101b66101b1366004610a2c565b6103fc565b604051610119959493929190610ad3565b61018e6101d5366004610b24565b61054f565b61010d6101e8366004610a61565b610576565b61013560025481565b61018e610204366004610b24565b61059f565b61021c610217366004610a2c565b6105c2565b6040516101199190610b3f565b610135600081565b61018e61023f366004610b72565b6106cc565b61018e610252366004610a61565b6107b6565b60006001600160e01b03198216637965db0b60e01b148061028857506301ffc9a760e01b6001600160e01b03198316145b92915050565b60028054600091829190826102a283610bdf565b909155506040805160a0810182523381526020808201878152600083850181905284518084018652818152606085015242608085015285815260019283905293909320825181546001600160a01b0319166001600160a01b0390911617815592519394509092908201906103169082610c8e565b50604082015160028201805460ff1916911515919091179055606082015160038201906103439082610c8e565b5060808201518160040155905050336001600160a01b0316817f04fae5251e21f33e0fa2ef6acc2b553e65fd9f87f14e23e09d0de905ea06f86f8560405161038b9190610b3f565b60405180910390a392915050565b6000828152602081905260409020600101546103b4816107db565b6103be83836107e8565b50505050565b6001600160a01b03811633146103ed5760405163334bd91960e11b815260040160405180910390fd5b6103f7828261087a565b505050565b6001602081905260009182526040909120805491810180546001600160a01b039093169261042990610c06565b80601f016020809104026020016040519081016040528092919081815260200182805461045590610c06565b80156104a25780601f10610477576101008083540402835291602001916104a2565b820191906000526020600020905b81548152906001019060200180831161048557829003601f168201915b5050506002840154600385018054949560ff9092169491935091506104c690610c06565b80601f01602080910402602001604051908101604052809291908181526020018280546104f290610c06565b801561053f5780601f106105145761010080835404028352916020019161053f565b820191906000526020600020905b81548152906001019060200180831161052257829003601f168201915b5050505050908060040154905085565b600061055a816107db565b610572600080516020610d4f83398151915283610399565b5050565b6000918252602082815260408084206001600160a01b0393909316845291905290205460ff1690565b60006105aa816107db565b610572600080516020610d4f833981519152836107b6565b60008181526001602052604090206002015460609060ff1661062b5760405162461bcd60e51b815260206004820152601960248201527f52657175657374206e6f742066756c66696c6c6564207965740000000000000060448201526064015b60405180910390fd5b6000828152600160205260409020600301805461064790610c06565b80601f016020809104026020016040519081016040528092919081815260200182805461067390610c06565b80156106c05780601f10610695576101008083540402835291602001916106c0565b820191906000526020600020905b8154815290600101906020018083116106a357829003601f168201915b50505050509050919050565b600080516020610d4f8339815191526106e4816107db565b60008481526001602052604090206002015460ff161561073a5760405162461bcd60e51b8152602060048201526011602482015270105b1c9958591e48199d5b199a5b1b1959607a1b6044820152606401610622565b60008481526001602052604090206003016107558482610c8e565b50600084815260016020819052604091829020600201805460ff1916909117905551339085907f361d1c2249cfcfd39e1b9e89783cdf5db8e443bd05d3c49e305b8600f7019dd5906107a8908790610b3f565b60405180910390a350505050565b6000828152602081905260409020600101546107d1816107db565b6103be838361087a565b6107e581336108e5565b50565b60006107f48383610576565b610872576000838152602081815260408083206001600160a01b03861684529091529020805460ff1916600117905561082a3390565b6001600160a01b0316826001600160a01b0316847f2f8788117e7eff1d82e926ec794901d17c78024a50270940304540a733656f0d60405160405180910390a4506001610288565b506000610288565b60006108868383610576565b15610872576000838152602081815260408083206001600160a01b0386168085529252808320805460ff1916905551339286917ff6391f5c32d9c69d2a47ea670b442974b53935d1edc7fd64eb21e047a839171b9190a4506001610288565b6108ef8282610576565b6105725760405163e2517d3f60e01b81526001600160a01b038216600482015260248101839052604401610622565b60006020828403121561093057600080fd5b81356001600160e01b03198116811461094857600080fd5b9392505050565b634e487b7160e01b600052604160045260246000fd5b600067ffffffffffffffff808411156109805761098061094f565b604051601f8501601f19908116603f011681019082821181831017156109a8576109a861094f565b816040528093508581528686860111156109c157600080fd5b858560208301376000602087830101525050509392505050565b6000602082840312156109ed57600080fd5b813567ffffffffffffffff811115610a0457600080fd5b8201601f81018413610a1557600080fd5b610a2484823560208401610965565b949350505050565b600060208284031215610a3e57600080fd5b5035919050565b80356001600160a01b0381168114610a5c57600080fd5b919050565b60008060408385031215610a7457600080fd5b82359150610a8460208401610a45565b90509250929050565b6000815180845260005b81811015610ab357602081850181015186830182015201610a97565b506000602082860101526020601f19601f83011685010191505092915050565b6001600160a01b038616815260a060208201819052600090610af790830187610a8d565b85151560408401528281036060840152610b118186610a8d565b9150508260808301529695505050505050565b600060208284031215610b3657600080fd5b61094882610a45565b6020815260006109486020830184610a8d565b600082601f830112610b6357600080fd5b61094883833560208501610965565b600080600060608486031215610b8757600080fd5b83359250602084013567ffffffffffffffff80821115610ba657600080fd5b610bb287838801610b52565b93506040860135915080821115610bc857600080fd5b50610bd586828701610b52565b9150509250925092565b600060018201610bff57634e487b7160e01b600052601160045260246000fd5b5060010190565b600181811c90821680610c1a57607f821691505b602082108103610c3a57634e487b7160e01b600052602260045260246000fd5b50919050565b601f8211156103f757600081815260208120601f850160051c81016020861015610c675750805b601f850160051c820191505b81811015610c8657828155600101610c73565b505050505050565b815167ffffffffffffffff811115610ca857610ca861094f565b610cbc81610cb68454610c06565b84610c40565b602080601f831160018114610cf15760008415610cd95750858301515b600019600386901b1c1916600185901b178555610c86565b600085815260208120601f198616915b82811015610d2057888601518255948401946001909101908401610d01565b5085821015610d3e5787850151600019600388901b60f8161c191681555b5050505050600190811b0190555056fecab5a0bfe0b79d2c4b1c2e02599fa044d115b7511f9659307cb4276950967709a264697066735822122062e389cd1da767fdd2ef63ac1c7d29f989917596eaac621d0cde8afc16237cc164736f6c63430008140033",
  "linkReferences": {},
  "deployedLinkReferences": {}
}